{
  "contractName": "Grubscan",
  "abi": [
    {
      "constant": true,
      "inputs": [],
      "name": "timeStamp",
      "outputs": [
        {
          "name": "",
          "type": "uint256"
        }
      ],
      "payable": false,
      "stateMutability": "view",
      "type": "function"
    },
    {
      "constant": true,
      "inputs": [],
      "name": "historyCount",
      "outputs": [
        {
          "name": "",
          "type": "uint256"
        }
      ],
      "payable": false,
      "stateMutability": "view",
      "type": "function"
    },
    {
      "constant": true,
      "inputs": [
        {
          "name": "",
          "type": "uint256"
        }
      ],
      "name": "historyLogs",
      "outputs": [
        {
          "name": "id",
          "type": "uint256"
        },
        {
          "name": "company",
          "type": "string"
        },
        {
          "name": "date",
          "type": "uint256"
        },
        {
          "name": "process",
          "type": "string"
        },
        {
          "name": "treatment",
          "type": "string"
        }
      ],
      "payable": false,
      "stateMutability": "view",
      "type": "function"
    },
    {
      "inputs": [],
      "payable": false,
      "stateMutability": "nonpayable",
      "type": "constructor"
    },
    {
      "constant": false,
      "inputs": [
        {
          "name": "company",
          "type": "string"
        },
        {
          "name": "date",
          "type": "uint256"
        },
        {
          "name": "process",
          "type": "string"
        },
        {
          "name": "treatment",
          "type": "string"
        }
      ],
      "name": "addHistory",
      "outputs": [],
      "payable": false,
      "stateMutability": "nonpayable",
      "type": "function"
    }
  ],
  "bytecode": "0x608060405234801561001057600080fd5b50426000819055506100d46040805190810160405280600981526020017f4167726f4661726d7300000000000000000000000000000000000000000000008152506000546040805190810160405280600b81526020017f46657274696c697a696e670000000000000000000000000000000000000000008152506040805190810160405280600381526020017f4e504b0000000000000000000000000000000000000000000000000000000000815250610195640100000000026401000000009004565b6101906040805190810160405280600b81526020017f4164616e6b6f4661726d730000000000000000000000000000000000000000008152506000546040805190810160405280600a81526020017f50726f63657373696e67000000000000000000000000000000000000000000008152506040805190810160405280600981526020017f536f7961204d696c6b0000000000000000000000000000000000000000000000815250610195640100000000026401000000009004565b6102ff565b60016000815480929190600101919050555060a06040519081016040528060015481526020018581526020018481526020018381526020018281525060026000600154815260200190815260200160002060008201518160000155602082015181600101908051906020019061020c92919061025a565b5060408201518160020155606082015181600301908051906020019061023392919061025a565b50608082015181600401908051906020019061025092919061025a565b5090505050505050565b828054600181600116156101000203166002900490600052602060002090601f016020900481019282601f1061029b57805160ff19168380011785556102c9565b828001600101855582156102c9579182015b828111156102c85782518255916020019190600101906102ad565b5b5090506102d691906102da565b5090565b6102fc91905b808211156102f85760008160009055506001016102e0565b5090565b90565b6106e88061030e6000396000f300608060405260043610610062576000357c0100000000000000000000000000000000000000000000000000000000900463ffffffff1680630ab0df87146100675780633a9c9ffc14610092578063b7ab8513146100bd578063e46c6b1014610249575b600080fd5b34801561007357600080fd5b5061007c610348565b6040518082815260200191505060405180910390f35b34801561009e57600080fd5b506100a761034e565b6040518082815260200191505060405180910390f35b3480156100c957600080fd5b506100e860048036038101908080359060200190929190505050610354565b60405180868152602001806020018581526020018060200180602001848103845288818151815260200191508051906020019080838360005b8381101561013c578082015181840152602081019050610121565b50505050905090810190601f1680156101695780820380516001836020036101000a031916815260200191505b50848103835286818151815260200191508051906020019080838360005b838110156101a2578082015181840152602081019050610187565b50505050905090810190601f1680156101cf5780820380516001836020036101000a031916815260200191505b50848103825285818151815260200191508051906020019080838360005b838110156102085780820151818401526020810190506101ed565b50505050905090810190601f1680156102355780820380516001836020036101000a031916815260200191505b509850505050505050505060405180910390f35b34801561025557600080fd5b50610346600480360381019080803590602001908201803590602001908080601f016020809104026020016040519081016040528093929190818152602001838380828437820191505050505050919291929080359060200190929190803590602001908201803590602001908080601f0160208091040260200160405190810160405280939291908181526020018383808284378201915050505050509192919290803590602001908201803590602001908080601f0160208091040260200160405190810160405280939291908181526020018383808284378201915050505050509192919290505050610552565b005b60005481565b60015481565b6002602052806000526040600020600091509050806000015490806001018054600181600116156101000203166002900480601f0160208091040260200160405190810160405280929190818152602001828054600181600116156101000203166002900480156104065780601f106103db57610100808354040283529160200191610406565b820191906000526020600020905b8154815290600101906020018083116103e957829003601f168201915b505050505090806002015490806003018054600181600116156101000203166002900480601f0160208091040260200160405190810160405280929190818152602001828054600181600116156101000203166002900480156104aa5780601f1061047f576101008083540402835291602001916104aa565b820191906000526020600020905b81548152906001019060200180831161048d57829003601f168201915b505050505090806004018054600181600116156101000203166002900480601f0160208091040260200160405190810160405280929190818152602001828054600181600116156101000203166002900480156105485780601f1061051d57610100808354040283529160200191610548565b820191906000526020600020905b81548152906001019060200180831161052b57829003601f168201915b5050505050905085565b60016000815480929190600101919050555060a0604051908101604052806001548152602001858152602001848152602001838152602001828152506002600060015481526020019081526020016000206000820151816000015560208201518160010190805190602001906105c9929190610617565b506040820151816002015560608201518160030190805190602001906105f0929190610617565b50608082015181600401908051906020019061060d929190610617565b5090505050505050565b828054600181600116156101000203166002900490600052602060002090601f016020900481019282601f1061065857805160ff1916838001178555610686565b82800160010185558215610686579182015b8281111561068557825182559160200191906001019061066a565b5b5090506106939190610697565b5090565b6106b991905b808211156106b557600081600090555060010161069d565b5090565b905600a165627a7a72305820fb8db315da148a7026e56121499690be161615df81304a9e77c93b1d0f93ca5e0029",
  "source": "pragma solidity ^0.4.2;\n\n\ncontract Grubscan {\n    uint public timeStamp;\n    uint public historyCount;\n    \n    struct HistoryLog {\n        uint id;\n        string company;\n        uint date;\n        string process;\n        string treatment;\n    }\n\n    mapping(uint => HistoryLog) public historyLogs;\n\n    constructor() public {\n        timeStamp = now;\n        addHistory(\"AgroFarms\", timeStamp, \"Fertilizing\", \"NPK\");\n        addHistory(\"AdankoFarms\", timeStamp, \"Processing\", \"Soya Milk\");\n    }\n\n    function addHistory(\n        string company,\n        uint date,\n        string process,\n        string treatment) public \n    {\n        \n        historyCount++;\n        historyLogs[historyCount] = HistoryLog(historyCount, company, date, process, treatment);\n\n    }\n}",
  "sourcePath": "/home/dope_vector/projies/truffle-angular/contracts/Grubscan.sol",
  "compiler": {
    "name": "solc",
    "version": "0.4.23+commit.124ca40d.Emscripten.clang"
  },
  "schemaVersion": "2.0.0",
  "updatedAt": "2018-04-22T00:05:40.829Z"
}