{
  "contractName": "Grubscan",
  "abi": [
    {
      "constant": true,
      "inputs": [],
      "name": "timeStamp",
      "outputs": [
        {
          "name": "",
          "type": "uint256"
        }
      ],
      "payable": false,
      "stateMutability": "view",
      "type": "function"
    },
    {
      "constant": true,
      "inputs": [],
      "name": "historyCount",
      "outputs": [
        {
          "name": "",
          "type": "uint256"
        }
      ],
      "payable": false,
      "stateMutability": "view",
      "type": "function"
    },
    {
      "constant": true,
      "inputs": [
        {
          "name": "",
          "type": "uint256"
        }
      ],
      "name": "historyLogs",
      "outputs": [
        {
          "name": "id",
          "type": "uint256"
        },
        {
          "name": "company",
          "type": "string"
        },
        {
          "name": "date",
          "type": "string"
        },
        {
          "name": "process",
          "type": "string"
        },
        {
          "name": "treatment",
          "type": "string"
        }
      ],
      "payable": false,
      "stateMutability": "view",
      "type": "function"
    },
    {
      "inputs": [],
      "payable": false,
      "stateMutability": "nonpayable",
      "type": "constructor"
    },
    {
      "constant": false,
      "inputs": [
        {
          "name": "company",
          "type": "string"
        },
        {
          "name": "date",
          "type": "string"
        },
        {
          "name": "process",
          "type": "string"
        },
        {
          "name": "treatment",
          "type": "string"
        }
      ],
      "name": "addHistory",
      "outputs": [],
      "payable": false,
      "stateMutability": "nonpayable",
      "type": "function"
    }
  ],
  "bytecode": "0x608060405234801561001057600080fd5b506101006040805190810160405280600981526020017f4167726f4661726d7300000000000000000000000000000000000000000000008152506040805190810160405280600681526020017f417072696c3100000000000000000000000000000000000000000000000000008152506040805190810160405280600b81526020017f46657274696c697a696e670000000000000000000000000000000000000000008152506040805190810160405280600381526020017f4e504b00000000000000000000000000000000000000000000000000000000008152506101f4640100000000026401000000009004565b6101ef6040805190810160405280600b81526020017f4164616e6b6f4661726d730000000000000000000000000000000000000000008152506040805190810160405280600681526020017f417072696c3200000000000000000000000000000000000000000000000000008152506040805190810160405280600a81526020017f50726f63657373696e67000000000000000000000000000000000000000000008152506040805190810160405280600981526020017f536f7961204d696c6b00000000000000000000000000000000000000000000008152506101f4640100000000026401000000009004565b610371565b60016000815480929190600101919050555060a06040519081016040528060015481526020018581526020018481526020018381526020018281525060026000600154815260200190815260200160002060008201518160000155602082015181600101908051906020019061026b9291906102cc565b5060408201518160020190805190602001906102889291906102cc565b5060608201518160030190805190602001906102a59291906102cc565b5060808201518160040190805190602001906102c29291906102cc565b5090505050505050565b828054600181600116156101000203166002900490600052602060002090601f016020900481019282601f1061030d57805160ff191683800117855561033b565b8280016001018555821561033b579182015b8281111561033a57825182559160200191906001019061031f565b5b509050610348919061034c565b5090565b61036e91905b8082111561036a576000816000905550600101610352565b5090565b90565b610834806103806000396000f300608060405260043610610062576000357c0100000000000000000000000000000000000000000000000000000000900463ffffffff1680630ab0df87146100675780633a9c9ffc146100925780635f2c43b0146100bd578063b7ab8513146101f8575b600080fd5b34801561007357600080fd5b5061007c6103e9565b6040518082815260200191505060405180910390f35b34801561009e57600080fd5b506100a76103ef565b6040518082815260200191505060405180910390f35b3480156100c957600080fd5b506101f6600480360381019080803590602001908201803590602001908080601f0160208091040260200160405190810160405280939291908181526020018383808284378201915050505050509192919290803590602001908201803590602001908080601f0160208091040260200160405190810160405280939291908181526020018383808284378201915050505050509192919290803590602001908201803590602001908080601f0160208091040260200160405190810160405280939291908181526020018383808284378201915050505050509192919290803590602001908201803590602001908080601f01602080910402602001604051908101604052809392919081815260200183838082843782019150505050505091929192905050506103f5565b005b34801561020457600080fd5b50610223600480360381019080803590602001909291905050506104cd565b6040518086815260200180602001806020018060200180602001858103855289818151815260200191508051906020019080838360005b8381101561027557808201518184015260208101905061025a565b50505050905090810190601f1680156102a25780820380516001836020036101000a031916815260200191505b50858103845288818151815260200191508051906020019080838360005b838110156102db5780820151818401526020810190506102c0565b50505050905090810190601f1680156103085780820380516001836020036101000a031916815260200191505b50858103835287818151815260200191508051906020019080838360005b83811015610341578082015181840152602081019050610326565b50505050905090810190601f16801561036e5780820380516001836020036101000a031916815260200191505b50858103825286818151815260200191508051906020019080838360005b838110156103a757808201518184015260208101905061038c565b50505050905090810190601f1680156103d45780820380516001836020036101000a031916815260200191505b50995050505050505050505060405180910390f35b60005481565b60015481565b60016000815480929190600101919050555060a06040519081016040528060015481526020018581526020018481526020018381526020018281525060026000600154815260200190815260200160002060008201518160000155602082015181600101908051906020019061046c929190610763565b506040820151816002019080519060200190610489929190610763565b5060608201518160030190805190602001906104a6929190610763565b5060808201518160040190805190602001906104c3929190610763565b5090505050505050565b6002602052806000526040600020600091509050806000015490806001018054600181600116156101000203166002900480601f01602080910402602001604051908101604052809291908181526020018280546001816001161561010002031660029004801561057f5780601f106105545761010080835404028352916020019161057f565b820191906000526020600020905b81548152906001019060200180831161056257829003601f168201915b505050505090806002018054600181600116156101000203166002900480601f01602080910402602001604051908101604052809291908181526020018280546001816001161561010002031660029004801561061d5780601f106105f25761010080835404028352916020019161061d565b820191906000526020600020905b81548152906001019060200180831161060057829003601f168201915b505050505090806003018054600181600116156101000203166002900480601f0160208091040260200160405190810160405280929190818152602001828054600181600116156101000203166002900480156106bb5780601f10610690576101008083540402835291602001916106bb565b820191906000526020600020905b81548152906001019060200180831161069e57829003601f168201915b505050505090806004018054600181600116156101000203166002900480601f0160208091040260200160405190810160405280929190818152602001828054600181600116156101000203166002900480156107595780601f1061072e57610100808354040283529160200191610759565b820191906000526020600020905b81548152906001019060200180831161073c57829003601f168201915b5050505050905085565b828054600181600116156101000203166002900490600052602060002090601f016020900481019282601f106107a457805160ff19168380011785556107d2565b828001600101855582156107d2579182015b828111156107d15782518255916020019190600101906107b6565b5b5090506107df91906107e3565b5090565b61080591905b808211156108015760008160009055506001016107e9565b5090565b905600a165627a7a723058203aef13edb172d3575aa58ce297c9a85e0c55fc9b6706a3289db28ba4ed65111b0029",
  "source": "pragma solidity ^0.4.2;\n\n\ncontract Grubscan {\n    uint public timeStamp;\n    uint public historyCount;\n    \n    struct HistoryLog {\n        uint id;\n        string company;\n        string date;\n        string process;\n        string treatment;\n    }\n\n    mapping(uint => HistoryLog) public historyLogs;\n\n    function Grubscan() public {\n        addHistory(\"AgroFarms\", \"April1\", \"Fertilizing\", \"NPK\");\n        addHistory(\"AdankoFarms\", \"April2\", \"Processing\", \"Soya Milk\");\n    }\n\n    function addHistory(\n        string company,\n        string date,\n        string process,\n        string treatment) public \n    {\n        \n        historyCount++;\n        historyLogs[historyCount] = HistoryLog(historyCount, company, date, process, treatment);\n\n    }\n}",
  "sourcePath": "/home/dope_vector/projies/truffle-angular/contracts/Grubscan.sol",
  "compiler": {
    "name": "solc",
    "version": "0.4.23+commit.124ca40d.Emscripten.clang"
  },
  "schemaVersion": "2.0.0",
  "updatedAt": "2018-04-22T06:05:31.143Z"
}